S00E00004B65797061642E73726563B8
S11300000C942A000C943C000C943C000C943C008E
S11300100C943C000C943C000C943C000C943C006C
S11300200C943C000C943C000C943C000C943C005C
S11300300C943C000C943C000C943C000C943C004C
S11300400C943C000C943C000C943C000C943C003C
S11300500C943C0011241FBECFE5D8E0DEBFCDBF19
S113006020E0A0E6B0E001C01D92A236B207E1F79D
S11300700E941D010C942D010C940000823099F013
S113008018F4813031F02DC08330B9F08430F9F0A8
S113009028C089B390E002C0959587956A95E2F7E8
S11300A081709927089586B390E002C0959587954D
S11300B06A95E2F781709927089583B390E002C0AE
S11300C0959587956A95E2F781709927089580B38D
S11300D090E002C0959587956A95E2F7817099271B
S11300E0089580E090E00895CF93DF93909A919AD9
S11300F0929A63E084E00E943E00892B01F190987B
S1130100919863E084E00E943E00892B09F06AC064
S113011090989298919A63E084E00E943E00892B23
S113012009F063C091989298909A63E084E00E94E9
S11301303E00892B09F05CC0C2E3D0E06DC064E0EE
S113014084E00E943E00892B01F19098919864E02C
S113015084E00E943E00892B09F04DC0909892984B
S1130160919A64E084E00E943E00892B09F046C025
S113017091989298909A64E084E00E943E00892BC2
S113018009F03FC0C2E3D0E047C065E084E00E94CC
S11301903E00EC01892BE9F09098919865E084E0A9
S11301A00E943E00892B81F590989298919A65E07F
S11301B084E00E943E00892B51F591989298909A80
S11301C065E084E00E943E00892B21F5C2E3D0E083
S11301D023C066E084E00E943E00892BE9F4C2E378
S11301E0D0E01AC0C1E0D0E017C0C2E0D0E014C033
S11301F0C3E0D0E011C0C4E0D0E00EC0C5E0D0E060
S11302000BC0C6E0D0E008C0C7E0D0E005C0C8E03D
S1130210D0E002C0C9E0D0E0CE01DF91CF910895D3
S1130220889A899A8A9A8B988C988D988E98089532
S1130230D09AD19AD29AD39A08950E9410010E941A
S113024018010E94740090936100809360008233CF
S1110250910509F48BB38BBBF4CFF894FFCF68
S9030000FC
